{
  "contractName": "PriceDirectory",
  "abi": [
    {
      "constant": true,
      "inputs": [
        {
          "name": "",
          "type": "uint256"
        }
      ],
      "name": "providers",
      "outputs": [
        {
          "name": "",
          "type": "address"
        }
      ],
      "payable": false,
      "stateMutability": "view",
      "type": "function"
    },
    {
      "constant": true,
      "inputs": [],
      "name": "contractOwner",
      "outputs": [
        {
          "name": "",
          "type": "address"
        }
      ],
      "payable": false,
      "stateMutability": "view",
      "type": "function"
    },
    {
      "inputs": [],
      "payable": false,
      "stateMutability": "nonpayable",
      "type": "constructor"
    },
    {
      "anonymous": false,
      "inputs": [
        {
          "indexed": true,
          "name": "_provider",
          "type": "address"
        }
      ],
      "name": "appliedForWhitelisting",
      "type": "event"
    },
    {
      "anonymous": false,
      "inputs": [
        {
          "indexed": true,
          "name": "_provider",
          "type": "address"
        }
      ],
      "name": "whiteListed",
      "type": "event"
    },
    {
      "anonymous": false,
      "inputs": [
        {
          "indexed": true,
          "name": "_provider",
          "type": "address"
        },
        {
          "indexed": true,
          "name": "_procedureId",
          "type": "uint256"
        }
      ],
      "name": "procedureListedSuccess",
      "type": "event"
    },
    {
      "anonymous": false,
      "inputs": [
        {
          "indexed": true,
          "name": "_provider",
          "type": "address"
        },
        {
          "indexed": true,
          "name": "_procedureId",
          "type": "uint256"
        }
      ],
      "name": "procedureApproved",
      "type": "event"
    },
    {
      "anonymous": false,
      "inputs": [
        {
          "indexed": true,
          "name": "_provider",
          "type": "address"
        },
        {
          "indexed": true,
          "name": "_procedureId",
          "type": "uint256"
        },
        {
          "indexed": true,
          "name": "_priceChangedTo",
          "type": "uint256"
        }
      ],
      "name": "procedurePriceChanged",
      "type": "event"
    },
    {
      "constant": false,
      "inputs": [
        {
          "name": "_provider",
          "type": "address"
        }
      ],
      "name": "applyForWhiteListing",
      "outputs": [
        {
          "name": "_applied",
          "type": "bool"
        }
      ],
      "payable": false,
      "stateMutability": "nonpayable",
      "type": "function"
    },
    {
      "constant": false,
      "inputs": [
        {
          "name": "_provider",
          "type": "address"
        }
      ],
      "name": "whiteListAnyProvider",
      "outputs": [
        {
          "name": "_whiteListed",
          "type": "bool"
        }
      ],
      "payable": false,
      "stateMutability": "nonpayable",
      "type": "function"
    },
    {
      "constant": false,
      "inputs": [
        {
          "name": "_provider",
          "type": "address"
        },
        {
          "name": "_procedureId",
          "type": "uint256"
        }
      ],
      "name": "approveProcedureListing",
      "outputs": [
        {
          "name": "_procedureApproved",
          "type": "bool"
        }
      ],
      "payable": false,
      "stateMutability": "nonpayable",
      "type": "function"
    },
    {
      "constant": false,
      "inputs": [
        {
          "name": "_procedureId",
          "type": "uint256"
        },
        {
          "name": "_priceInTokens",
          "type": "uint256"
        }
      ],
      "name": "listProcedure",
      "outputs": [
        {
          "name": "_procedureListed",
          "type": "bool"
        }
      ],
      "payable": false,
      "stateMutability": "nonpayable",
      "type": "function"
    },
    {
      "constant": false,
      "inputs": [
        {
          "name": "_procedureId",
          "type": "uint256"
        },
        {
          "name": "_priceInTokens",
          "type": "uint256"
        }
      ],
      "name": "changeProcedurePrice",
      "outputs": [
        {
          "name": "_procedurePriceChanged",
          "type": "bool"
        }
      ],
      "payable": false,
      "stateMutability": "nonpayable",
      "type": "function"
    },
    {
      "constant": true,
      "inputs": [
        {
          "name": "_provider",
          "type": "address"
        },
        {
          "name": "_procedureId",
          "type": "uint256"
        }
      ],
      "name": "checkCurrentProcedurePrice",
      "outputs": [
        {
          "name": "_procedurePrice",
          "type": "uint256"
        }
      ],
      "payable": false,
      "stateMutability": "view",
      "type": "function"
    },
    {
      "constant": true,
      "inputs": [
        {
          "name": "_provider",
          "type": "address"
        }
      ],
      "name": "viewProcedures",
      "outputs": [
        {
          "name": "",
          "type": "uint256[]"
        }
      ],
      "payable": false,
      "stateMutability": "view",
      "type": "function"
    },
    {
      "constant": true,
      "inputs": [
        {
          "name": "_provider",
          "type": "address"
        },
        {
          "name": "_blocknumber",
          "type": "uint256"
        },
        {
          "name": "_procedureId",
          "type": "uint256"
        }
      ],
      "name": "checkProcedurePriceByBlock",
      "outputs": [
        {
          "name": "_procedurePriceAtBlokcnumber",
          "type": "uint256"
        }
      ],
      "payable": false,
      "stateMutability": "view",
      "type": "function"
    },
    {
      "constant": true,
      "inputs": [
        {
          "name": "_provider",
          "type": "address"
        }
      ],
      "name": "checkIfProviderExists",
      "outputs": [
        {
          "name": "",
          "type": "bool"
        }
      ],
      "payable": false,
      "stateMutability": "view",
      "type": "function"
    },
    {
      "constant": true,
      "inputs": [],
      "name": "viewAllProviders",
      "outputs": [
        {
          "name": "",
          "type": "address[]"
        }
      ],
      "payable": false,
      "stateMutability": "view",
      "type": "function"
    }
  ],
  "bytecode": "0x608060405234801561001057600080fd5b50336000806101000a81548173ffffffffffffffffffffffffffffffffffffffff021916908373ffffffffffffffffffffffffffffffffffffffff1602179055506115bf806100606000396000f3006080604052600436106100ba576000357c0100000000000000000000000000000000000000000000000000000000900463ffffffff16806307772c28146100bf5780630e7620261461010e57806330b7b5b2146101695780633d7d1589146101d557806350f3fc811461024057806361f51046146102ad578063c82c0e6f14610312578063ce606ee01461036d578063dba5b689146103c4578063f4e2133c14610413578063fba4a9ef146104ab578063fef7cb0114610506575b600080fd5b3480156100cb57600080fd5b506100f46004803603810190808035906020019092919080359060200190929190505050610567565b604051808215151515815260200191505060405180910390f35b34801561011a57600080fd5b5061014f600480360381019080803573ffffffffffffffffffffffffffffffffffffffff1690602001909291905050506107b8565b604051808215151515815260200191505060405180910390f35b34801561017557600080fd5b5061017e6109dd565b6040518080602001828103825283818151815260200191508051906020019060200280838360005b838110156101c15780820151818401526020810190506101a6565b505050509050019250505060405180910390f35b3480156101e157600080fd5b5061022a600480360381019080803573ffffffffffffffffffffffffffffffffffffffff1690602001909291908035906020019092919080359060200190929190505050610a6b565b6040518082815260200191505060405180910390f35b34801561024c57600080fd5b5061026b60048036038101908080359060200190929190505050610baa565b604051808273ffffffffffffffffffffffffffffffffffffffff1673ffffffffffffffffffffffffffffffffffffffff16815260200191505060405180910390f35b3480156102b957600080fd5b506102f8600480360381019080803573ffffffffffffffffffffffffffffffffffffffff16906020019092919080359060200190929190505050610be8565b604051808215151515815260200191505060405180910390f35b34801561031e57600080fd5b50610353600480360381019080803573ffffffffffffffffffffffffffffffffffffffff169060200190929190505050610e3b565b604051808215151515815260200191505060405180910390f35b34801561037957600080fd5b50610382610f9e565b604051808273ffffffffffffffffffffffffffffffffffffffff1673ffffffffffffffffffffffffffffffffffffffff16815260200191505060405180910390f35b3480156103d057600080fd5b506103f96004803603810190808035906020019092919080359060200190929190505050610fc3565b604051808215151515815260200191505060405180910390f35b34801561041f57600080fd5b50610454600480360381019080803573ffffffffffffffffffffffffffffffffffffffff1690602001909291905050506112a4565b6040518080602001828103825283818151815260200191508051906020019060200280838360005b8381101561049757808201518184015260208101905061047c565b505050509050019250505060405180910390f35b3480156104b757600080fd5b506104ec600480360381019080803573ffffffffffffffffffffffffffffffffffffffff16906020019092919050505061139d565b604051808215151515815260200191505060405180910390f35b34801561051257600080fd5b50610551600480360381019080803573ffffffffffffffffffffffffffffffffffffffff16906020019092919080359060200190929190505050611466565b6040518082815260200191505060405180910390f35b600060011515600260003373ffffffffffffffffffffffffffffffffffffffff1673ffffffffffffffffffffffffffffffffffffffff16815260200190815260200160002060009054906101000a900460ff1615151415156105c857600080fd5b60011515600560003373ffffffffffffffffffffffffffffffffffffffff1673ffffffffffffffffffffffffffffffffffffffff168152602001908152602001600020600085815260200190815260200160002060009054906101000a900460ff16151514151561063857600080fd5b60011515600660003373ffffffffffffffffffffffffffffffffffffffff1673ffffffffffffffffffffffffffffffffffffffff168152602001908152602001600020600085815260200190815260200160002060009054906101000a900460ff1615151415156106a857600080fd5b81600360003373ffffffffffffffffffffffffffffffffffffffff1673ffffffffffffffffffffffffffffffffffffffff16815260200190815260200160002060010160008581526020019081526020016000208190555081600360003373ffffffffffffffffffffffffffffffffffffffff1673ffffffffffffffffffffffffffffffffffffffff168152602001908152602001600020600201600085815260200190815260200160002060004381526020019081526020016000208190555081833373ffffffffffffffffffffffffffffffffffffffff167f17ba0859f7876ba66424f4c0d0a412c40edc849b282fc95f96652f106d95617760405160405180910390a46001905092915050565b60008060009054906101000a900473ffffffffffffffffffffffffffffffffffffffff1673ffffffffffffffffffffffffffffffffffffffff163373ffffffffffffffffffffffffffffffffffffffff1614151561081557600080fd5b60001515600260008473ffffffffffffffffffffffffffffffffffffffff1673ffffffffffffffffffffffffffffffffffffffff16815260200190815260200160002060009054906101000a900460ff16151514151561087457600080fd5b60011515600460008473ffffffffffffffffffffffffffffffffffffffff1673ffffffffffffffffffffffffffffffffffffffff16815260200190815260200160002060009054906101000a900460ff1615151415156108d357600080fd5b6001600260008473ffffffffffffffffffffffffffffffffffffffff1673ffffffffffffffffffffffffffffffffffffffff16815260200190815260200160002060006101000a81548160ff02191690831515021790555060018290806001815401808255809150509060018203906000526020600020016000909192909190916101000a81548173ffffffffffffffffffffffffffffffffffffffff021916908373ffffffffffffffffffffffffffffffffffffffff160217905550503373ffffffffffffffffffffffffffffffffffffffff167ffa0fca84cba80cdee1ecb7b4881598053a09cbbd9a3b18d1a0ccc8ee07d6044660405160405180910390a260019050919050565b60606001805480602002602001604051908101604052809291908181526020018280548015610a6157602002820191906000526020600020905b8160009054906101000a900473ffffffffffffffffffffffffffffffffffffffff1673ffffffffffffffffffffffffffffffffffffffff1681526020019060010190808311610a17575b5050505050905090565b600060011515600260008673ffffffffffffffffffffffffffffffffffffffff1673ffffffffffffffffffffffffffffffffffffffff16815260200190815260200160002060009054906101000a900460ff161515141515610acc57600080fd5b60011515600560003373ffffffffffffffffffffffffffffffffffffffff1673ffffffffffffffffffffffffffffffffffffffff168152602001908152602001600020600084815260200190815260200160002060009054906101000a900460ff161515141515610b3c57600080fd5b600360003373ffffffffffffffffffffffffffffffffffffffff1673ffffffffffffffffffffffffffffffffffffffff168152602001908152602001600020600201600083815260200190815260200160002060008481526020019081526020016000205490509392505050565b600181815481101515610bb957fe5b906000526020600020016000915054906101000a900473ffffffffffffffffffffffffffffffffffffffff1681565b60008060009054906101000a900473ffffffffffffffffffffffffffffffffffffffff1673ffffffffffffffffffffffffffffffffffffffff163373ffffffffffffffffffffffffffffffffffffffff16141515610c4557600080fd5b60011515600260008573ffffffffffffffffffffffffffffffffffffffff1673ffffffffffffffffffffffffffffffffffffffff16815260200190815260200160002060009054906101000a900460ff161515141515610ca457600080fd5b60001515600560008573ffffffffffffffffffffffffffffffffffffffff1673ffffffffffffffffffffffffffffffffffffffff168152602001908152602001600020600084815260200190815260200160002060009054906101000a900460ff161515141515610d1457600080fd5b60001515600660008573ffffffffffffffffffffffffffffffffffffffff1673ffffffffffffffffffffffffffffffffffffffff168152602001908152602001600020600084815260200190815260200160002060009054906101000a900460ff161515141515610d8457600080fd5b6001600660008573ffffffffffffffffffffffffffffffffffffffff1673ffffffffffffffffffffffffffffffffffffffff168152602001908152602001600020600084815260200190815260200160002060006101000a81548160ff021916908315150217905550818373ffffffffffffffffffffffffffffffffffffffff167fa74d2eb6f2a03640cb2b142c6eed3e95a49368728d10f104eecb18914ca7f01560405160405180910390a36001905092915050565b6000801515600260008473ffffffffffffffffffffffffffffffffffffffff1673ffffffffffffffffffffffffffffffffffffffff16815260200190815260200160002060009054906101000a900460ff161515141515610e9b57600080fd5b60001515600460008473ffffffffffffffffffffffffffffffffffffffff1673ffffffffffffffffffffffffffffffffffffffff16815260200190815260200160002060009054906101000a900460ff161515141515610efa57600080fd5b6001600460008473ffffffffffffffffffffffffffffffffffffffff1673ffffffffffffffffffffffffffffffffffffffff16815260200190815260200160002060006101000a81548160ff0219169083151502179055508173ffffffffffffffffffffffffffffffffffffffff167f73d9eedfc7f8dd98b374272f26b0b1e1d4590398b00edbb207756bec29086e0d60405160405180910390a260019050919050565b6000809054906101000a900473ffffffffffffffffffffffffffffffffffffffff1681565b600060011515600260003373ffffffffffffffffffffffffffffffffffffffff1673ffffffffffffffffffffffffffffffffffffffff16815260200190815260200160002060009054906101000a900460ff16151514151561102457600080fd5b60001515600560003373ffffffffffffffffffffffffffffffffffffffff1673ffffffffffffffffffffffffffffffffffffffff168152602001908152602001600020600085815260200190815260200160002060009054906101000a900460ff16151514151561109457600080fd5b60011515600660003373ffffffffffffffffffffffffffffffffffffffff1673ffffffffffffffffffffffffffffffffffffffff168152602001908152602001600020600085815260200190815260200160002060009054906101000a900460ff16151514151561110457600080fd5b600360003373ffffffffffffffffffffffffffffffffffffffff1673ffffffffffffffffffffffffffffffffffffffff16815260200190815260200160002060000183908060018154018082558091505090600182039060005260206000200160009091929091909150555081600360003373ffffffffffffffffffffffffffffffffffffffff1673ffffffffffffffffffffffffffffffffffffffff16815260200190815260200160002060010160008581526020019081526020016000208190555081600360003373ffffffffffffffffffffffffffffffffffffffff1673ffffffffffffffffffffffffffffffffffffffff16815260200190815260200160002060020160008581526020019081526020016000206000438152602001908152602001600020819055506001600560003373ffffffffffffffffffffffffffffffffffffffff1673ffffffffffffffffffffffffffffffffffffffff168152602001908152602001600020600085815260200190815260200160002060006101000a81548160ff0219169083151502179055506001905092915050565b606060011515600260008473ffffffffffffffffffffffffffffffffffffffff1673ffffffffffffffffffffffffffffffffffffffff16815260200190815260200160002060009054906101000a900460ff16151514151561130557600080fd5b600360008373ffffffffffffffffffffffffffffffffffffffff1673ffffffffffffffffffffffffffffffffffffffff16815260200190815260200160002060000180548060200260200160405190810160405280929190818152602001828054801561139157602002820191906000526020600020905b81548152602001906001019080831161137d575b50505050509050919050565b600060011515600260008473ffffffffffffffffffffffffffffffffffffffff1673ffffffffffffffffffffffffffffffffffffffff16815260200190815260200160002060009054906101000a900460ff1615151415156113fe57600080fd5b60011515600460008473ffffffffffffffffffffffffffffffffffffffff1673ffffffffffffffffffffffffffffffffffffffff16815260200190815260200160002060009054906101000a900460ff16151514151561145d57600080fd5b60019050919050565b600060011515600260008573ffffffffffffffffffffffffffffffffffffffff1673ffffffffffffffffffffffffffffffffffffffff16815260200190815260200160002060009054906101000a900460ff1615151415156114c757600080fd5b60011515600560008573ffffffffffffffffffffffffffffffffffffffff1673ffffffffffffffffffffffffffffffffffffffff168152602001908152602001600020600084815260200190815260200160002060009054906101000a900460ff16151514151561153757600080fd5b600360008473ffffffffffffffffffffffffffffffffffffffff1673ffffffffffffffffffffffffffffffffffffffff1681526020019081526020016000206001016000838152602001908152602001600020549050929150505600a165627a7a72305820bacdd7b0403962fc969f85a76fb659c6f3587e30c9fbd2b03c3fbe744d00e1180029",
  "source": "pragma solidity ^0.4.18;\n\n\ncontract  PriceDirectoryInterface{\n    \n    \n     // get whitelisted to offer procedures on our platform\n    function applyForWhiteListing(address _provider) public returns(bool _applied);\n    \n    \n    // Decent verifies the provider and whitelists the provider\n    \n    function whiteListAnyProvider(address _provider) public returns(bool _whiteListed);\n                   \n   //approve provider for a to list a certain procedure\n    function approveProcedureListing(address _provider,uint _procedureId) public  returns(bool _procedureApproved);\n    \n    \n    //Provider can List a procedure with a price in tokens once the procedure is approved to be listed\n    \n    function listProcedure(uint _procedureId,uint _priceInTokens) public returns(bool _procedureListed);\n    \n    //change procedure Price\n    \n    function changeProcedurePrice(uint _procedureId,uint _priceInTokens) public returns(bool _procedurePriceChanged);\n   \n    //check current procedure Price\n    \n    function checkCurrentProcedurePrice(address _provider,uint _procedureId) external view returns(uint _procedurePrice);\n    \n    //view all the procedures offered by a provider\n    \n    function viewProcedures(address _provider) external view returns(uint[]);\n    \n    //check past prices of procedure based on blockNumber\n    \n    function checkProcedurePriceByBlock(address _provider,uint _blocknumber,uint _procedureId) external view returns(uint _procedurePriceAtBlokcnumber);\n    \n    \n    //check if the provider is on platform\n    \n    function checkIfProviderExists(address _provider) external view returns(bool);\n    \n    //checkALl the providers on the platform\n    \n    function viewAllProviders() external view returns(address[]);\n    \n     //Events\n    \n    event appliedForWhitelisting(address indexed _provider);\n    event whiteListed(address indexed _provider);\n    event procedureListedSuccess(address indexed _provider,uint indexed _procedureId);\n    event procedureApproved (address indexed _provider,uint indexed _procedureId);\n    event procedurePriceChanged(address indexed _provider,uint indexed _procedureId,uint indexed _priceChangedTo);\n    \n    \n}\n\n\ncontract PriceDirectory is PriceDirectoryInterface{\n    \n    \n    address public contractOwner;\n    address[] public providers;\n\n\n    \n    //struct Directory to store all the price and procedure  data for health care provider\n    struct directory{\n        \n        uint[]  procedureId;\n      \n        mapping(uint=>uint) procedureCurrentPrice;\n        \n        mapping(uint=>mapping(uint=>uint)) procedurePriceAtBlock;\n        \n    }\n    \n    \n    \n    //mappings\n    \n    // To check whether the health provider was verified before he is allowed to list his services\n    mapping(address=>bool) verified;\n    \n    //access provider data\n    mapping(address=>directory) providerData;\n    \n    //provider applies for whitelisting\n    mapping(address=>bool) applied;\n    \n    //Procedure procedureListed\n    \n    mapping(address=>mapping(uint=>bool)) procedureListed;\n    \n    \n    //procedureExists and approved by decent or third party\n    mapping(address=>mapping(uint=>bool)) procedureExists;\n    \n    \n    \n    function PriceDirectory(){\n        contractOwner=msg.sender;\n        \n    }\n    \n     //modifier\n     //modifier\n    modifier onlyContractOwner() {\n        require(msg.sender ==contractOwner);\n        _;\n    }\n    \n    \n    // get whitelisted to offer procedures on our platform\n    function applyForWhiteListing(address _provider) public returns(bool _applied){\n               require(verified[_provider]==false);\n               require(applied[_provider]==false);\n               applied[_provider]=true;\n               emit appliedForWhitelisting(_provider);\n               return true;\n               \n    }\n    \n    \n    // Decent verifies the provider and whitelists the provider\n    \n    function whiteListAnyProvider(address _provider) public onlyContractOwner returns(bool _whiteListed){\n                    require(verified[_provider]==false);\n                    require(applied[_provider]==true);\n                    verified[_provider]=true;\n                    providers.push(_provider);\n                    emit whiteListed(msg.sender);\n                    return true;\n                        \n    }\n    \n    \n    //approve provider for a to list a certain procedure\n    function approveProcedureListing(address _provider,uint _procedureId) public onlyContractOwner returns(bool _procedureApproved){\n                require(verified[_provider]==true);\n                require(procedureListed[_provider][_procedureId]==false);\n                require(procedureExists[_provider][_procedureId]==false);\n                procedureExists[_provider][_procedureId]=true;\n                procedureApproved(_provider,_procedureId);\n                return true;\n    }\n    \n    \n    \n    \n    \n    //Provider can List a procedure with a price in tokens once the procedure is approved to be listed\n    \n    function listProcedure(uint _procedureId,uint _priceInTokens) public returns(bool _procedureListed){\n                        require(verified[msg.sender]==true);\n                        require(procedureListed[msg.sender][_procedureId]==false);\n                        require(procedureExists[msg.sender][_procedureId]==true);\n                        providerData[msg.sender].procedureId.push(_procedureId);\n                        providerData[msg.sender].procedureCurrentPrice[_procedureId]=_priceInTokens;\n                        providerData[msg.sender].procedurePriceAtBlock[_procedureId][block.number]=_priceInTokens;\n                        procedureListed[msg.sender][_procedureId]=true;\n                        return true;\n                        \n\n    }\n    \n    //change procedure Price\n    \n    function changeProcedurePrice(uint _procedureId,uint _priceInTokens) public returns(bool _procedurePriceChanged){\n                        require(verified[msg.sender]==true);\n                        require(procedureListed[msg.sender][_procedureId]==true);\n                        require(procedureExists[msg.sender][_procedureId]==true);\n                        providerData[msg.sender].procedureCurrentPrice[_procedureId]=_priceInTokens;\n                        providerData[msg.sender].procedurePriceAtBlock[_procedureId][block.number]=_priceInTokens;\n                        emit procedurePriceChanged(msg.sender,_procedureId,_priceInTokens);\n                        return true;\n\n                        \n    }\n    \n    //check current procedure Price\n    \n    function checkCurrentProcedurePrice(address _provider,uint _procedureId) external view returns(uint _procedurePrice){\n                    require(verified[_provider]==true);\n                    require(procedureListed[_provider][_procedureId]==true);\n                    return  providerData[_provider].procedureCurrentPrice[_procedureId];\n    }\n    \n    //view all the procedures offered by a provider\n    function viewProcedures(address _provider) external view returns(uint[]){\n                        require(verified[_provider]==true);\n                        return providerData[_provider].procedureId;\n        \n        \n        \n    }\n    \n    //check past prices of procedure based on blockNumber\n    \n    function checkProcedurePriceByBlock(address _provider,uint _blocknumber,uint _procedureId) external view returns(uint _procedurePriceAtBlokcnumber){\n                            require(verified[_provider]==true);\n                            require(procedureListed[msg.sender][_procedureId]==true);\n                            return  providerData[msg.sender].procedurePriceAtBlock[_procedureId][_blocknumber];\n\n    }\n    \n    //check if the provider is on platform\n    \n    function checkIfProviderExists(address _provider) external view returns(bool){\n                     require(verified[_provider]==true);\n                     require(applied[_provider]==true);\n                     return true;\n        \n    } \n    \n    //checkALl the providers on the platform\n    \n    function viewAllProviders() external view returns(address[]){\n                return providers;\n    }\n    \n    \n    \n    \n    \n    \n    \n    \n    \n    \n    \n    \n    \n    \n\n}",
  "sourcePath": "/Users/tyagi/Desktop/Decent/contracts/PriceDirectory.sol",
  "compiler": {
    "name": "solc",
    "version": "0.4.24+commit.e67f0147.Emscripten.clang"
  },
  "schemaVersion": "2.0.0",
  "updatedAt": "2018-08-06T02:33:02.173Z"
}